{
  "contractName": "VeganRobDAO",
  "abi": [
    {
      "inputs": [
        {
          "internalType": "uint256",
          "name": "",
          "type": "uint256"
        },
        {
          "internalType": "uint256",
          "name": "",
          "type": "uint256"
        }
      ],
      "name": "votes",
      "outputs": [
        {
          "internalType": "uint256",
          "name": "",
          "type": "uint256"
        }
      ],
      "stateMutability": "view",
      "type": "function",
      "constant": true
    },
    {
      "inputs": [
        {
          "internalType": "uint256",
          "name": "id",
          "type": "uint256"
        },
        {
          "internalType": "bool",
          "name": "choice",
          "type": "bool"
        }
      ],
      "name": "vote",
      "outputs": [],
      "stateMutability": "nonpayable",
      "type": "function"
    }
  ],
  "bytecode": "0x608060405234801561000f575f80fd5b506102c88061001d5f395ff3fe608060405234801561000f575f80fd5b5060043610610034575f3560e01c8063c6e36a3214610038578063c9d27afe14610068575b5f80fd5b610052600480360381019061004d919061012c565b610084565b60405161005f9190610179565b60405180910390f35b610082600480360381019061007d91906101c7565b6100a7565b005b5f602052815f5260405f20816002811061009c575f80fd5b015f91509150505481565b60015f808481526020019081526020015f20826100c55760016100c7565b5f5b60ff16600281106100db576100da610205565b5b015f8282546100ea919061025f565b925050819055505050565b5f80fd5b5f819050919050565b61010b816100f9565b8114610115575f80fd5b50565b5f8135905061012681610102565b92915050565b5f8060408385031215610142576101416100f5565b5b5f61014f85828601610118565b925050602061016085828601610118565b9150509250929050565b610173816100f9565b82525050565b5f60208201905061018c5f83018461016a565b92915050565b5f8115159050919050565b6101a681610192565b81146101b0575f80fd5b50565b5f813590506101c18161019d565b92915050565b5f80604083850312156101dd576101dc6100f5565b5b5f6101ea85828601610118565b92505060206101fb858286016101b3565b9150509250929050565b7f4e487b71000000000000000000000000000000000000000000000000000000005f52603260045260245ffd5b7f4e487b71000000000000000000000000000000000000000000000000000000005f52601160045260245ffd5b5f610269826100f9565b9150610274836100f9565b925082820190508082111561028c5761028b610232565b5b9291505056fea2646970667358221220159f619663d245aadc7bcfe519c17f4105cde784f9f79c0b8797191d803ff9f764736f6c63430008140033",
  "immutableReferences": {},
  "source": "// SPDX-License-Identifier: MIT\npragma solidity ^0.8.20;\n\ncontract VeganRobDAO {\n    mapping(uint256 => uint256[2]) public votes;     // id  [yes,no]\n\n    function vote(uint256 id, bool choice) external {\n        votes[id][choice ? 0 : 1] += 1;\n    }\n}\n",
  "sourcePath": "/Users/jimmymalhan/Doc/web3-skill-test/contracts/VeganRobDAO.sol",
  "compiler": {
    "name": "solc",
    "version": "0.8.20+commit.a1b79de6.Emscripten.clang"
  },
  "schemaVersion": "3.4.16",
  "updatedAt": "2025-06-13T02:39:34.151Z",
  "networkType": "ethereum",
  "devdoc": {
    "kind": "dev",
    "methods": {},
    "version": 1
  },
  "userdoc": {
    "kind": "user",
    "methods": {},
    "version": 1
  }
}